:04000000BAEF00F063
:08000800046ED8CF05F0E0CF33
:1000100006F00001E9CF0CF0EACF07F0E1CF08F0DD
:10002000E2CF09F0D9CF0AF0DACF0BF0F3CF12F01C
:10003000F4CF13F0FACF14F0F5CF15F0F6CF16F099
:10004000F7CF17F000C00EF001C00FF002C010F0A3
:1000500003C011F0F2A830EF00F0F2B270EF00F040
:10006000F0A636EF00F0F0B093EF00F00EC000F015
:100070000FC001F010C002F011C003F00CC0E9FF86
:1000800007C0EAFF078E08C0E1FF09C0E2FF0AC00F
:10009000D9FF0BC0DAFF12C0F3FF13C0F4FF14C086
:1000A000FAFF15C0F5FF16C0F6FF17C0F7FF0450A2
:1000B00006C0E0FF05C0D8FF1000EA6A1D0EE96E19
:1000C000EF500DE0020E016E006A002EFED7012EE9
:1000D000FBD7970E006E002EFED7EF2EF3D712003F
:1000E0008368020E1C6EFA0E1D6EE7DF1C2EFBD716
:1000F000836A020E1C6EFA0E1D6EDFDF1C2EFBD70C
:100100008368020E1C6EFA0E1D6ED7DF1C2EFBD705
:10011000836A020E1C6EFA0E1D6ECFDF1C2EFBD7FB
:10012000F29236EF00F0F00E836E040E1C6EFA0EA3
:100130001D6EC3DF1C2EFBD70F0E836E040E1C6ECC
:10014000FA0E1D6EBADF1C2EFBD7F00E836E040E66
:100150001C6EFA0E1D6EB1DF1C2EFBD70F0E836EC8
:10016000040E1C6EFA0E1D6EA8DF1C2EFBD7F0903D
:1001700036EF00F0F86AD09E078E1A6AC150C00BA5
:100180000F09C16E956AC00E936E900EF26EF16A01
:10019000080EF06E1A6A1A3C01D00DD01AC083FF07
:1001A000196AF2BE198EF29EC80E1D6E86DF19BE48
:0A01B000F28E1A2AF0D7EED70300F2
:020000040030CA
:0E00000001CC381E0086A900034003600340B7
:00000001FF
;PIC18F4450
;CRC=ECCB  CREATED="14-Feb-22 02:46"
